{
	"data": {
		"bytecode": {
			"linkReferences": {},
			"object": "6080604052600460035560016004556002600555600360065534801561002457600080fd5b50600780546001600160a01b031990811673d9145cce52d386f254917e481eb44e9943f391381790915560008054821673ec29164d68c4992cedd1d386118a47143fdcf1421790556001805490911633179055610560806100866000396000f3fe6080604052600436106100865760003560e01c8063a71e06f711610059578063a71e06f714610118578063bdf3e0881461012e578063c1e1a3c714610150578063efa9a9be14610170578063f6b4dfb41461018357610086565b806323b3306c1461008b57806372ae76e7146100b45780638da5cb5b146100ca578063928f369e14610102575b600080fd5b34801561009757600080fd5b506100a160035481565b6040519081526020015b60405180910390f35b3480156100c057600080fd5b506100a160055481565b3480156100d657600080fd5b506001546100ea906001600160a01b031681565b6040516001600160a01b0390911681526020016100ab565b34801561010e57600080fd5b506100a160045481565b34801561012457600080fd5b506100a160065481565b34801561013a57600080fd5b5061014e6101493660046104b9565b6101a3565b005b34801561015c57600080fd5b506000546100ea906001600160a01b031681565b61014e61017e3660046104ff565b61025d565b34801561018f57600080fd5b506007546100ea906001600160a01b031681565b6001546001600160a01b031633146102015760405162461bcd60e51b815260206004820152601960248201527f4f6e6c79206f776e65722063616e2063616c6c20746869732e00000000000000604482015260640160405180910390fd5b6007546040516001600160a01b038084169216907fcb00f3ff4837ea4507daf1d93700d8208886da06a6a81154d052917e5953e0a490600090a3600780546001600160a01b0319166001600160a01b0392909216919091179055565b600054604051627eeac760e11b8152336004820152602481018590526001916001600160a01b03169062fdd58e9060440160206040518083038186803b1580156102a657600080fd5b505afa1580156102ba573d6000803e3d6000fd5b505050506040513d601f19601f820116820180604052508101906102de91906104e7565b10156102e957600080fd5b600054604051627eeac760e11b8152336004820152602481018490526001916001600160a01b03169062fdd58e9060440160206040518083038186803b15801561033257600080fd5b505afa158015610346573d6000803e3d6000fd5b505050506040513d601f19601f8201168201806040525081019061036a91906104e7565b101561037557600080fd5b600054604051627eeac760e11b8152336004820152602481018390526001916001600160a01b03169062fdd58e9060440160206040518083038186803b1580156103be57600080fd5b505afa1580156103d2573d6000803e3d6000fd5b505050506040513d601f19601f820116820180604052508101906103f691906104e7565b101561040157600080fd5b60008054600754600354604051637921219560e11b81526001600160a01b03928316600482015233602482015260448101919091526001606482015260a0608482015260a4810193909352169063f242432a9060c401600060405180830381600087803b15801561047157600080fd5b505af1158015610485573d6000803e3d6000fd5b50506040513392507f0c7ef932d3b91976772937f18d5ef9b39a9930bef486b576c374f047c4b512dc9150600090a2505050565b6000602082840312156104ca578081fd5b81356001600160a01b03811681146104e0578182fd5b9392505050565b6000602082840312156104f8578081fd5b5051919050565b600080600060608486031215610513578182fd5b50508135936020830135935060409092013591905056fea264697066735822122096df526ec111bfc86b3d3376d98a76cc530279129faa8d516b59d336f060814d64736f6c63430008030033",
			"opcodes": "PUSH1 0x80 PUSH1 0x40 MSTORE PUSH1 0x4 PUSH1 0x3 SSTORE PUSH1 0x1 PUSH1 0x4 SSTORE PUSH1 0x2 PUSH1 0x5 SSTORE PUSH1 0x3 PUSH1 0x6 SSTORE CALLVALUE DUP1 ISZERO PUSH2 0x24 JUMPI PUSH1 0x0 DUP1 REVERT JUMPDEST POP PUSH1 0x7 DUP1 SLOAD PUSH1 0x1 PUSH1 0x1 PUSH1 0xA0 SHL SUB NOT SWAP1 DUP2 AND PUSH20 0xD9145CCE52D386F254917E481EB44E9943F39138 OR SWAP1 SWAP2 SSTORE PUSH1 0x0 DUP1 SLOAD DUP3 AND PUSH20 0xEC29164D68C4992CEDD1D386118A47143FDCF142 OR SWAP1 SSTORE PUSH1 0x1 DUP1 SLOAD SWAP1 SWAP2 AND CALLER OR SWAP1 SSTORE PUSH2 0x560 DUP1 PUSH2 0x86 PUSH1 0x0 CODECOPY PUSH1 0x0 RETURN INVALID PUSH1 0x80 PUSH1 0x40 MSTORE PUSH1 0x4 CALLDATASIZE LT PUSH2 0x86 JUMPI PUSH1 0x0 CALLDATALOAD PUSH1 0xE0 SHR DUP1 PUSH4 0xA71E06F7 GT PUSH2 0x59 JUMPI DUP1 PUSH4 0xA71E06F7 EQ PUSH2 0x118 JUMPI DUP1 PUSH4 0xBDF3E088 EQ PUSH2 0x12E JUMPI DUP1 PUSH4 0xC1E1A3C7 EQ PUSH2 0x150 JUMPI DUP1 PUSH4 0xEFA9A9BE EQ PUSH2 0x170 JUMPI DUP1 PUSH4 0xF6B4DFB4 EQ PUSH2 0x183 JUMPI PUSH2 0x86 JUMP JUMPDEST DUP1 PUSH4 0x23B3306C EQ PUSH2 0x8B JUMPI DUP1 PUSH4 0x72AE76E7 EQ PUSH2 0xB4 JUMPI DUP1 PUSH4 0x8DA5CB5B EQ PUSH2 0xCA JUMPI DUP1 PUSH4 0x928F369E EQ PUSH2 0x102 JUMPI JUMPDEST PUSH1 0x0 DUP1 REVERT JUMPDEST CALLVALUE DUP1 ISZERO PUSH2 0x97 JUMPI PUSH1 0x0 DUP1 REVERT JUMPDEST POP PUSH2 0xA1 PUSH1 0x3 SLOAD DUP2 JUMP JUMPDEST PUSH1 0x40 MLOAD SWAP1 DUP2 MSTORE PUSH1 0x20 ADD JUMPDEST PUSH1 0x40 MLOAD DUP1 SWAP2 SUB SWAP1 RETURN JUMPDEST CALLVALUE DUP1 ISZERO PUSH2 0xC0 JUMPI PUSH1 0x0 DUP1 REVERT JUMPDEST POP PUSH2 0xA1 PUSH1 0x5 SLOAD DUP2 JUMP JUMPDEST CALLVALUE DUP1 ISZERO PUSH2 0xD6 JUMPI PUSH1 0x0 DUP1 REVERT JUMPDEST POP PUSH1 0x1 SLOAD PUSH2 0xEA SWAP1 PUSH1 0x1 PUSH1 0x1 PUSH1 0xA0 SHL SUB AND DUP2 JUMP JUMPDEST PUSH1 0x40 MLOAD PUSH1 0x1 PUSH1 0x1 PUSH1 0xA0 SHL SUB SWAP1 SWAP2 AND DUP2 MSTORE PUSH1 0x20 ADD PUSH2 0xAB JUMP JUMPDEST CALLVALUE DUP1 ISZERO PUSH2 0x10E JUMPI PUSH1 0x0 DUP1 REVERT JUMPDEST POP PUSH2 0xA1 PUSH1 0x4 SLOAD DUP2 JUMP JUMPDEST CALLVALUE DUP1 ISZERO PUSH2 0x124 JUMPI PUSH1 0x0 DUP1 REVERT JUMPDEST POP PUSH2 0xA1 PUSH1 0x6 SLOAD DUP2 JUMP JUMPDEST CALLVALUE DUP1 ISZERO PUSH2 0x13A JUMPI PUSH1 0x0 DUP1 REVERT JUMPDEST POP PUSH2 0x14E PUSH2 0x149 CALLDATASIZE PUSH1 0x4 PUSH2 0x4B9 JUMP JUMPDEST PUSH2 0x1A3 JUMP JUMPDEST STOP JUMPDEST CALLVALUE DUP1 ISZERO PUSH2 0x15C JUMPI PUSH1 0x0 DUP1 REVERT JUMPDEST POP PUSH1 0x0 SLOAD PUSH2 0xEA SWAP1 PUSH1 0x1 PUSH1 0x1 PUSH1 0xA0 SHL SUB AND DUP2 JUMP JUMPDEST PUSH2 0x14E PUSH2 0x17E CALLDATASIZE PUSH1 0x4 PUSH2 0x4FF JUMP JUMPDEST PUSH2 0x25D JUMP JUMPDEST CALLVALUE DUP1 ISZERO PUSH2 0x18F JUMPI PUSH1 0x0 DUP1 REVERT JUMPDEST POP PUSH1 0x7 SLOAD PUSH2 0xEA SWAP1 PUSH1 0x1 PUSH1 0x1 PUSH1 0xA0 SHL SUB AND DUP2 JUMP JUMPDEST PUSH1 0x1 SLOAD PUSH1 0x1 PUSH1 0x1 PUSH1 0xA0 SHL SUB AND CALLER EQ PUSH2 0x201 JUMPI PUSH1 0x40 MLOAD PUSH3 0x461BCD PUSH1 0xE5 SHL DUP2 MSTORE PUSH1 0x20 PUSH1 0x4 DUP3 ADD MSTORE PUSH1 0x19 PUSH1 0x24 DUP3 ADD MSTORE PUSH32 0x4F6E6C79206F776E65722063616E2063616C6C20746869732E00000000000000 PUSH1 0x44 DUP3 ADD MSTORE PUSH1 0x64 ADD PUSH1 0x40 MLOAD DUP1 SWAP2 SUB SWAP1 REVERT JUMPDEST PUSH1 0x7 SLOAD PUSH1 0x40 MLOAD PUSH1 0x1 PUSH1 0x1 PUSH1 0xA0 SHL SUB DUP1 DUP5 AND SWAP3 AND SWAP1 PUSH32 0xCB00F3FF4837EA4507DAF1D93700D8208886DA06A6A81154D052917E5953E0A4 SWAP1 PUSH1 0x0 SWAP1 LOG3 PUSH1 0x7 DUP1 SLOAD PUSH1 0x1 PUSH1 0x1 PUSH1 0xA0 SHL SUB NOT AND PUSH1 0x1 PUSH1 0x1 PUSH1 0xA0 SHL SUB SWAP3 SWAP1 SWAP3 AND SWAP2 SWAP1 SWAP2 OR SWAP1 SSTORE JUMP JUMPDEST PUSH1 0x0 SLOAD PUSH1 0x40 MLOAD PUSH3 0x7EEAC7 PUSH1 0xE1 SHL DUP2 MSTORE CALLER PUSH1 0x4 DUP3 ADD MSTORE PUSH1 0x24 DUP2 ADD DUP6 SWAP1 MSTORE PUSH1 0x1 SWAP2 PUSH1 0x1 PUSH1 0x1 PUSH1 0xA0 SHL SUB AND SWAP1 PUSH3 0xFDD58E SWAP1 PUSH1 0x44 ADD PUSH1 0x20 PUSH1 0x40 MLOAD DUP1 DUP4 SUB DUP2 DUP7 DUP1 EXTCODESIZE ISZERO DUP1 ISZERO PUSH2 0x2A6 JUMPI PUSH1 0x0 DUP1 REVERT JUMPDEST POP GAS STATICCALL ISZERO DUP1 ISZERO PUSH2 0x2BA JUMPI RETURNDATASIZE PUSH1 0x0 DUP1 RETURNDATACOPY RETURNDATASIZE PUSH1 0x0 REVERT JUMPDEST POP POP POP POP PUSH1 0x40 MLOAD RETURNDATASIZE PUSH1 0x1F NOT PUSH1 0x1F DUP3 ADD AND DUP3 ADD DUP1 PUSH1 0x40 MSTORE POP DUP2 ADD SWAP1 PUSH2 0x2DE SWAP2 SWAP1 PUSH2 0x4E7 JUMP JUMPDEST LT ISZERO PUSH2 0x2E9 JUMPI PUSH1 0x0 DUP1 REVERT JUMPDEST PUSH1 0x0 SLOAD PUSH1 0x40 MLOAD PUSH3 0x7EEAC7 PUSH1 0xE1 SHL DUP2 MSTORE CALLER PUSH1 0x4 DUP3 ADD MSTORE PUSH1 0x24 DUP2 ADD DUP5 SWAP1 MSTORE PUSH1 0x1 SWAP2 PUSH1 0x1 PUSH1 0x1 PUSH1 0xA0 SHL SUB AND SWAP1 PUSH3 0xFDD58E SWAP1 PUSH1 0x44 ADD PUSH1 0x20 PUSH1 0x40 MLOAD DUP1 DUP4 SUB DUP2 DUP7 DUP1 EXTCODESIZE ISZERO DUP1 ISZERO PUSH2 0x332 JUMPI PUSH1 0x0 DUP1 REVERT JUMPDEST POP GAS STATICCALL ISZERO DUP1 ISZERO PUSH2 0x346 JUMPI RETURNDATASIZE PUSH1 0x0 DUP1 RETURNDATACOPY RETURNDATASIZE PUSH1 0x0 REVERT JUMPDEST POP POP POP POP PUSH1 0x40 MLOAD RETURNDATASIZE PUSH1 0x1F NOT PUSH1 0x1F DUP3 ADD AND DUP3 ADD DUP1 PUSH1 0x40 MSTORE POP DUP2 ADD SWAP1 PUSH2 0x36A SWAP2 SWAP1 PUSH2 0x4E7 JUMP JUMPDEST LT ISZERO PUSH2 0x375 JUMPI PUSH1 0x0 DUP1 REVERT JUMPDEST PUSH1 0x0 SLOAD PUSH1 0x40 MLOAD PUSH3 0x7EEAC7 PUSH1 0xE1 SHL DUP2 MSTORE CALLER PUSH1 0x4 DUP3 ADD MSTORE PUSH1 0x24 DUP2 ADD DUP4 SWAP1 MSTORE PUSH1 0x1 SWAP2 PUSH1 0x1 PUSH1 0x1 PUSH1 0xA0 SHL SUB AND SWAP1 PUSH3 0xFDD58E SWAP1 PUSH1 0x44 ADD PUSH1 0x20 PUSH1 0x40 MLOAD DUP1 DUP4 SUB DUP2 DUP7 DUP1 EXTCODESIZE ISZERO DUP1 ISZERO PUSH2 0x3BE JUMPI PUSH1 0x0 DUP1 REVERT JUMPDEST POP GAS STATICCALL ISZERO DUP1 ISZERO PUSH2 0x3D2 JUMPI RETURNDATASIZE PUSH1 0x0 DUP1 RETURNDATACOPY RETURNDATASIZE PUSH1 0x0 REVERT JUMPDEST POP POP POP POP PUSH1 0x40 MLOAD RETURNDATASIZE PUSH1 0x1F NOT PUSH1 0x1F DUP3 ADD AND DUP3 ADD DUP1 PUSH1 0x40 MSTORE POP DUP2 ADD SWAP1 PUSH2 0x3F6 SWAP2 SWAP1 PUSH2 0x4E7 JUMP JUMPDEST LT ISZERO PUSH2 0x401 JUMPI PUSH1 0x0 DUP1 REVERT JUMPDEST PUSH1 0x0 DUP1 SLOAD PUSH1 0x7 SLOAD PUSH1 0x3 SLOAD PUSH1 0x40 MLOAD PUSH4 0x79212195 PUSH1 0xE1 SHL DUP2 MSTORE PUSH1 0x1 PUSH1 0x1 PUSH1 0xA0 SHL SUB SWAP3 DUP4 AND PUSH1 0x4 DUP3 ADD MSTORE CALLER PUSH1 0x24 DUP3 ADD MSTORE PUSH1 0x44 DUP2 ADD SWAP2 SWAP1 SWAP2 MSTORE PUSH1 0x1 PUSH1 0x64 DUP3 ADD MSTORE PUSH1 0xA0 PUSH1 0x84 DUP3 ADD MSTORE PUSH1 0xA4 DUP2 ADD SWAP4 SWAP1 SWAP4 MSTORE AND SWAP1 PUSH4 0xF242432A SWAP1 PUSH1 0xC4 ADD PUSH1 0x0 PUSH1 0x40 MLOAD DUP1 DUP4 SUB DUP2 PUSH1 0x0 DUP8 DUP1 EXTCODESIZE ISZERO DUP1 ISZERO PUSH2 0x471 JUMPI PUSH1 0x0 DUP1 REVERT JUMPDEST POP GAS CALL ISZERO DUP1 ISZERO PUSH2 0x485 JUMPI RETURNDATASIZE PUSH1 0x0 DUP1 RETURNDATACOPY RETURNDATASIZE PUSH1 0x0 REVERT JUMPDEST POP POP PUSH1 0x40 MLOAD CALLER SWAP3 POP PUSH32 0xC7EF932D3B91976772937F18D5EF9B39A9930BEF486B576C374F047C4B512DC SWAP2 POP PUSH1 0x0 SWAP1 LOG2 POP POP POP JUMP JUMPDEST PUSH1 0x0 PUSH1 0x20 DUP3 DUP5 SUB SLT ISZERO PUSH2 0x4CA JUMPI DUP1 DUP2 REVERT JUMPDEST DUP2 CALLDATALOAD PUSH1 0x1 PUSH1 0x1 PUSH1 0xA0 SHL SUB DUP2 AND DUP2 EQ PUSH2 0x4E0 JUMPI DUP2 DUP3 REVERT JUMPDEST SWAP4 SWAP3 POP POP POP JUMP JUMPDEST PUSH1 0x0 PUSH1 0x20 DUP3 DUP5 SUB SLT ISZERO PUSH2 0x4F8 JUMPI DUP1 DUP2 REVERT JUMPDEST POP MLOAD SWAP2 SWAP1 POP JUMP JUMPDEST PUSH1 0x0 DUP1 PUSH1 0x0 PUSH1 0x60 DUP5 DUP7 SUB SLT ISZERO PUSH2 0x513 JUMPI DUP2 DUP3 REVERT JUMPDEST POP POP DUP2 CALLDATALOAD SWAP4 PUSH1 0x20 DUP4 ADD CALLDATALOAD SWAP4 POP PUSH1 0x40 SWAP1 SWAP3 ADD CALLDATALOAD SWAP2 SWAP1 POP JUMP INVALID LOG2 PUSH5 0x6970667358 0x22 SLT KECCAK256 SWAP7 0xDF MSTORE PUSH15 0xC111BFC86B3D3376D98A76CC530279 SLT SWAP16 0xAA DUP14 MLOAD PUSH12 0x59D336F060814D64736F6C63 NUMBER STOP ADDMOD SUB STOP CALLER "
		},
		"gasEstimates": {
			"creation": {
				"codeDepositCost": "275200",
				"executionCost": "142825",
				"totalCost": "418025"
			},
			"external": {
				"claim(uint256,uint256,uint256)": "infinite",
				"contractAddress()": "1125",
				"elon()": "1081",
				"owner()": "1082",
				"tokenIdOfEL0()": "985",
				"tokenIdOfEL1()": "1051",
				"tokenIdOfEL2()": "1007",
				"tokenIdOfEL3()": "984",
				"updateContractAddress(address)": "24352"
			}
		},
		"methodIdentifiers": {
			"claim(uint256,uint256,uint256)": "efa9a9be",
			"contractAddress()": "f6b4dfb4",
			"elon()": "c1e1a3c7",
			"owner()": "8da5cb5b",
			"tokenIdOfEL0()": "23b3306c",
			"tokenIdOfEL1()": "928f369e",
			"tokenIdOfEL2()": "72ae76e7",
			"tokenIdOfEL3()": "a71e06f7",
			"updateContractAddress(address)": "bdf3e088"
		}
	},
	"abi": [
		{
			"inputs": [],
			"stateMutability": "nonpayable",
			"type": "constructor"
		},
		{
			"anonymous": false,
			"inputs": [
				{
					"indexed": true,
					"internalType": "address",
					"name": "claimer",
					"type": "address"
				}
			],
			"name": "Claim",
			"type": "event"
		},
		{
			"anonymous": false,
			"inputs": [
				{
					"indexed": true,
					"internalType": "address",
					"name": "oldContractAddress",
					"type": "address"
				},
				{
					"indexed": true,
					"internalType": "address",
					"name": "contractAddress",
					"type": "address"
				}
			],
			"name": "UpdateContractAddress",
			"type": "event"
		},
		{
			"inputs": [
				{
					"internalType": "uint256",
					"name": "tokenIdOfEL1",
					"type": "uint256"
				},
				{
					"internalType": "uint256",
					"name": "tokenIdOfEL2",
					"type": "uint256"
				},
				{
					"internalType": "uint256",
					"name": "tokenIdOfEL3",
					"type": "uint256"
				}
			],
			"name": "claim",
			"outputs": [],
			"stateMutability": "payable",
			"type": "function"
		},
		{
			"inputs": [],
			"name": "contractAddress",
			"outputs": [
				{
					"internalType": "address",
					"name": "",
					"type": "address"
				}
			],
			"stateMutability": "view",
			"type": "function"
		},
		{
			"inputs": [],
			"name": "elon",
			"outputs": [
				{
					"internalType": "contract IERC1155",
					"name": "",
					"type": "address"
				}
			],
			"stateMutability": "view",
			"type": "function"
		},
		{
			"inputs": [],
			"name": "owner",
			"outputs": [
				{
					"internalType": "address",
					"name": "",
					"type": "address"
				}
			],
			"stateMutability": "view",
			"type": "function"
		},
		{
			"inputs": [],
			"name": "tokenIdOfEL0",
			"outputs": [
				{
					"internalType": "uint256",
					"name": "",
					"type": "uint256"
				}
			],
			"stateMutability": "view",
			"type": "function"
		},
		{
			"inputs": [],
			"name": "tokenIdOfEL1",
			"outputs": [
				{
					"internalType": "uint256",
					"name": "",
					"type": "uint256"
				}
			],
			"stateMutability": "view",
			"type": "function"
		},
		{
			"inputs": [],
			"name": "tokenIdOfEL2",
			"outputs": [
				{
					"internalType": "uint256",
					"name": "",
					"type": "uint256"
				}
			],
			"stateMutability": "view",
			"type": "function"
		},
		{
			"inputs": [],
			"name": "tokenIdOfEL3",
			"outputs": [
				{
					"internalType": "uint256",
					"name": "",
					"type": "uint256"
				}
			],
			"stateMutability": "view",
			"type": "function"
		},
		{
			"inputs": [
				{
					"internalType": "address",
					"name": "_contractAddress",
					"type": "address"
				}
			],
			"name": "updateContractAddress",
			"outputs": [],
			"stateMutability": "nonpayable",
			"type": "function"
		}
	]
}